:100000000C9424000C9441000C9441000C94410089
:100010000C9441000C9441000C9441000C9441005C
:100020000C9441000C9441000C9441000C9441004C
:100030000C9441000C9441000C9441000C9441003C
:100040000C9441000C94410011241FBECFE5D4E074
:10005000DEBFCDBF11E0A0E6B0E0ECE1FDE002C004
:1000600005900D92AE38B107D9F712E0AEE8B1E0D5
:1000700001C01D92AF33B107E1F70E9443000C9419
:100080008C060C9400000F931F9388ED91E09093E1
:10009000D5018093D4012EEA31E03093D70120932B
:1000A000D6010E948B018091D6019091D7010E94C8
:1000B00094010E94410202E017E68091D4019091E0
:1000C000D5010E946E02E091D601F091D7018130F6
:1000D00059F08091D80180838091D9018183028376
:1000E00015821383148207C08091D4019091D501A9
:1000F000BF010E9499008091D6019091D7010E9482
:10010000B6018091D4019091D5010E948B0180911C
:10011000D6019091D7010E949401CFCFFC01878135
:10012000861729F48085841711F481E008958FEFF4
:100130000895FC01DB0180818C93818111968C9361
:1001400011978181813C71F480818C9381EE1196AD
:100150008C93119781E012968C9312978381169657
:100160008C9308958381803809F045C0848180355F
:1001700001F1813528F4803441F08234C1F50FC09B
:10018000823509F1803699F528C087818031B9F52B
:1001900080858031A1F5CF010E94D7030895878122
:1001A000803169F58085803151F5CF010E94B0031F
:1001B00008958781803119F58085803101F5CF015F
:1001C0000E948903089587818031C9F48085803138
:1001D000B1F4CF010E94620308958781803179F4E0
:1001E0008085803161F4CF010E943B030895CD01E9
:1001F0000E94A6010895CB010E949E010895CD01A1
:100200000E94AE01089565E16A95F1F7089569E7E6
:10021000FBCF7F936F935F934F9361E060931E02D8
:10022000BE98C698B699FECFB699FCCF8827992775
:100230006FE1EADF22D0000059E0442762E40000C9
:100240000000E2DF1AD0470F889470FD089487956C
:1002500061E45A95B1F7881F40FD08C06CE4D4DF13
:1002600099274F915F916F917F9108956CE4CCDF56
:10027000BE9AC69866EBC8DFD3CF77278894B69925
:100280000894791FC0DF8894B6990894791FBBDF62
:100290008894B6990894791F769508956F937F9303
:1002A00060911E02662329F0B2DFB1DF60E0609347
:1002B0001E02C69ABE9AC69867E7A6DF98E077271F
:1002C000879510F0C69802C0C69A739566E79CDFC2
:1002D00000009A95A9F770FD04C000000000C698C0
:1002E00004C00000C69A0000000060E78DDFC69AD7
:1002F00067E78ADFBE98C6988894B699089430F06C
:100300008795B699FECF6AE37FDFD3CF64E77CDFC2
:100310007F916F910895FC011082118212821086E4
:100320001782138214820895FC011082118282E0E8
:100330008283158284E6838314820895FC0182E01F
:10034000828315828EE6838314820895FC0182E005
:100350008283158288E6838314820895FC0182E0FB
:10036000828315828AE6838314820895CF92DF9276
:10037000FF920F931F93DF93CF93CDB7DEB7C65491
:10038000D0400FB6F894DEBF0FBECDBF8C01DC01AC
:1003900011962C9111973C9112964C91129727FF30
:1003A0001BC039832A834B8316968C918C83132F21
:1003B0001227142718271D83832F0E944E018A813C
:1003C0000E944E018B810E944E018C810E944E0141
:1003D000812F0E944E0146C039832A834B83632FAD
:1003E00062276427FC018581A80194E0C92ED12CE5
:1003F000CC0EDD1EA82FB0E09E012A0F3B1F2C5F04
:100400003F4F06C0FA018581F60181936F0168278D
:100410004F5F5F4FC216D306A9F7F8019381FE0123
:10042000EA0FFB1F9483F8018481FE01EA0FFB1F92
:100430008583892786278683FF246E010894C11C43
:10044000D11C06C0EC0DFD1D80810E944E01F3946D
:10045000EF2DF0E0D80112968C9190E003968E1764
:100460009F0784F7CA5BDF4F0FB6F894DEBF0FBE5D
:10047000CDBFCF91DF911F910F91FF90DF90CF9073
:1004800008951F93CF93DF931BE3C6E6D0E0FE01F0
:100490008191182780E0E037F807D1F78BE30E94BD
:1004A0004E018AEB0E944E0181E10E944E0180E0E4
:1004B0000E944E0181E10E944E0181E80E944E019E
:1004C00089910E944E0180E0C037D807C9F7812F7B
:1004D0000E944E01DF91CF911F9108957F928F92DC
:1004E0009F92AF92BF92CF92DF92EF92FF920F93C3
:1004F0001F93DF93CF93CDB7DEB7C654D0400FB66E
:10050000F894DEBF0FBECDBF8C010E940901782E8A
:100510000E940901882E0E940901982E7E010894EC
:10052000E11CF11C67015701A80EB11C05C00E9417
:100530000901D6018D936D01CA14DB04C1F70E9435
:100540000901682FF801708281829282982D972587
:10055000992504C0D7018D917D019827EC14FD04E5
:10056000C9F78981F80183838A8184838B8185839C
:100570008C8186838281853019F48D8180872EC09D
:10058000863060F18D81D80117968C9326E0E22E9B
:10059000F12CEC0EFD1EF80140E050E006C0D70142
:1005A0008D917D0180874F5F5F4FD80117968C91A9
:1005B0001797282F30E031964217530784F312968D
:1005C0008C911297E82FF0E02B5F3F4F2E173F07DB
:1005D0002CF4EC0FFD1F808118968C93961711F464
:1005E00081E001C08FEFCA5BDF4F0FB6F894DEBF2A
:1005F0000FBECDBFCF91DF911F910F91FF90EF9074
:10060000DF90CF90BF90AF909F908F907F90089594
:10061000CF93DF93EC0190E00BC0E92FF0E0DE0117
:10062000AE0FBF1F19968C91E257FE4F80839F5FDC
:100630008885981790F3DF91CF910895CF93DF933A
:10064000EC016E5F6A8362506D8380E98B831C824C
:1006500090E00BC0E92FF0E0DE01AE0FBF1FE256C5
:10066000FE4F808116968C939F5F8D81981790F333
:10067000DF91CF9108950F931F93CF93DF93EC01F8
:100680008B0190E00BC0E92FF0E0DE01AE0FBF1F41
:1006900019968C91E257FE4F80839F5F888598174B
:1006A00090F38EE891E06EE971E040E750E00E943F
:1006B000EA05C80160E10E941E03DF91CF911F91FE
:1006C0000F9108950F931F93CF93DF93EC018B014C
:1006D00090E00BC0E92FF0E0DE01AE0FBF1F1996CE
:1006E0008C91E257FE4F80839F5F8885981790F327
:1006F0008EE891E06EE971E040E750E00E948604E8
:10070000C80160E10E941E03DF91CF911F910F91FC
:1007100008950F931F93CF93DF93EC018B0190E02B
:100720000BC0E92FF0E0DE01AE0FBF1F19968C91D0
:10073000E257FE4F80839F5F8885981790F38EE87D
:1007400091E06EE971E040E750E00E944504C80185
:1007500060E10E941E03DF91CF911F910F910895D8
:100760000F931F93CF93DF93EC018B0190E00BC0AD
:10077000E92FF0E0DE01AE0FBF1F19968C91E25712
:10078000FE4F80839F5F8885981790F38EE891E0F5
:100790006EE971E040E750E00E942404C80160E186
:1007A0000E941E03DF91CF911F910F9108950F9327
:1007B0001F93CF93DF93EC018B0190E00BC0E92FE7
:1007C000F0E0DE01AE0FBF1F19968C91E257FE4F8D
:1007D00080839F5F8885981790F38EE891E06EE99B
:1007E00071E040E750E00E94FE03C80160E10E9412
:1007F0001E03DF91CF911F910F9108950F931F93C7
:10080000CF93DF938C0187B3806A87BB88B3806AFC
:1008100088BBEB0120E030E0FA01E20FF31FD801C2
:10082000A20FB31F80819C9189278F872F5F3F4F35
:1008300021972031310581F788B38F7588BBDF910F
:10084000CF911F910F910895CF93DF9327B3206A23
:1008500027BB28B3206A28BBEC0120E030E0DB0195
:10086000A20FB31FFA01E20FF31F80819F85892732
:100870008C932F5F3F4F21972031310581F788B34B
:100880008F7588BBDF91CF9108952F923F924F9241
:100890005F926F927F928F929F92AF92BF92CF9210
:1008A000DF92EF92FF920F931F93CF93DF93EF931B
:1008B000FF93B92FA82FD72FC62FF52FE42FBD9A5E
:1008C000BF9AC59AC79A00E11127C00FD11F20E136
:1008D0000D91119101270A932A95D1F7C598C798D0
:1008E000FF91EF91DF91CF911F910F91FF90EF90CA
:1008F000DF90CF90BF90AF909F908F907F906F9040
:100900005F904F903F902F90112408952F923F9227
:100910004F925F926F927F928F929F92AF92BF920F
:10092000CF92DF92EF92FF920F931F93CF93DF93BB
:10093000EF93FF93A82FB92FC62FD72FE42FF52FB2
:10094000BD9ABF9AC59AC79A00E11127A00FB11F9F
:1009500020E10E911191012709932A95D1F7C598AD
:10096000C798FF91EF91DF91CF911F910F91FF9069
:10097000EF90DF90CF90BF90AF909F908F907F903F
:100980006F905F904F903F902F9011240895EFE16A
:10099000F2E0AFE2B2E080819D918927819382E00D
:1009A000EF32F807C1F70895AFE1B2E0EC91F0E063
:1009B000E058FF4F80818D9382E0AF32B807B1F7E6
:1009C00008959091200280912402809320028091CA
:1009D00028028093240280912C0280932802909315
:1009E0002C029091290280912102809329029093F8
:1009F000210290912D028091250280932D029093E7
:100A000025029091220280912E02809322028091F1
:100A10002A0280932E028091260280932A029093CC
:100A20002602089587FF05C0982F990F8BE198271C
:100A300002C0982F990F892F0895982F990F990B1D
:100A40009B71880F89270895AFE1B2E0EC91119670
:100A50003C91119712965C91129713967C91139783
:100A6000832F8E27472F4527642F6827982F990FAC
:100A7000990B262F2E279B71880F892728272C93C7
:100A8000852F8327982F990F990B36279B71880FF5
:100A90008927382711963C931197842F880F880B4C
:100AA00056278B71440F4827542712965C93129750
:100AB000872F8E27982F990F990B67279B71880F87
:100AC0008927682713966C931397149682E0AF32A8
:100AD000B80709F0BBCF0895BF92CF92DF92EF9293
:100AE000FF920F931F93CF93DF93ADE3B2E0B090EB
:100AF0003D0220E830E0F901EB0DF11D4081C0908E
:100B00003E02F901EC0DF11D50819EEFE92E9FEFA1
:100B1000F92EEA0EFB1EE701D880F901ED0DF11D5B
:100B20001081FD013E97ED010A91BE01200F311D9C
:100B3000E90198819827808198279083FD013D974E
:100B4000808148274083FD013C978081582750834E
:100B5000FD013B97808118271083FD013A97808122
:100B600089278083FD013997908194279083FD0127
:100B70003897408145274083FD01379750815127A1
:100B80005083FD013697308138273083FD0135973A
:100B9000208129272083FD01349790819427908319
:100BA00013978C9185278C933D25F701308320275F
:100BB000EB0128839B2590933D028C2580933E0278
:100BC000DF91CF911F910F91FF90EF90DF90CF9029
:100BD000BF900895AF92BF92CF92DF92EF92FF92B3
:100BE0000F931F93CF93DF93EC015B0120E030E084
:100BF000D901A15EBD4FFE01E20FF31F80818C93EE
:100C0000D901A15DBD4FFA01E20FF31F80818C93E2
:100C10002F5F3F4F2031310559F787B3806A87BB7B
:100C200088B3806A88BB3FE1E32E32E0F32E2FE2E7
:100C3000C22E22E0D22EF701D60180819D91892714
:100C4000819382E0EF32F807C1F700E811E024C099
:100C5000E881F0E0E058FF4F80818993E2E0CF32F5
:100C6000DE07B1F70E94E1040E942405F8018081AB
:100C70000E946C05FE017097AFE2B2E080819D9109
:100C80008927819382E0EF32F807C1F70F5F1F4F8A
:100C900081E00938180719F0CFE1D2E0D9CFDF01A0
:100CA0005097EC91F0E0E058FF4F80818D93E2E0A7
:100CB000AF32BE07B1F70E94E104809189010E9422
:100CC0006C05F7018081F60191916F018927F70189
:100CD00081937F01FFE2EF16F2E0FF0691F788B300
:100CE0008F7588BB20E030E0F501E20FF31FD901DA
:100CF000A15EBD4F8C9180832F5F3F4F2031310526
:100D000099F7DF91CF911F910F91FF90EF90DF90B6
:0C0D1000CF90BF90AF900895F894FFCFF3
:100D1C003BBA110011812A4649545F435655542A57
:100D2C0000112233445566778899AABBCCDDEEFFBF
:100D3C00637C777BF26B6FC53001672BFED7AB768C
:100D4C00CA82C97DFA5947F0ADD4A2AF9CA472C037
:100D5C00B7FD9326363FF7CC34A5E5F171D83115A4
:100D6C0004C723C31896059A071280E2EB27B275C5
:100D7C0009832C1A1B6E5AA0523BD6B329E32F843D
:100D8C0053D100ED20FCB15B6ACBBE394A4C58CF35
:100D9C00D0EFAAFB434D338545F9027F503C9FA809
:100DAC0051A3408F929D38F5BCB6DA2110FFF3D2D7
:100DBC00CD0C13EC5F974417C4A77E3D645D19738B
:100DCC0060814FDC222A908846EEB814DE5E0BDB85
:100DDC00E0323A0A4906245CC2D3AC629195E479BC
:100DEC00E7C8376D8DD54EA96C56F4EA657AAE0816
:100DFC00BA78252E1CA6B4C6E8DD741F4BBD8B8AB1
:100E0C00703EB5664803F60E613557B986C11D9E16
:100E1C00E1F8981169D98E949B1E87E9CE5528DF8D
:100E2C008CA1890DBFE6426841992D0FB054BB16B9
:0E0E3C0001020408102040801B366CD8AB0069
:00000001FF
