:100000000C9424000C9441000C9441000C94410089
:100010000C9441000C9441000C9441000C9441005C
:100020000C9441000C9441000C9441000C9441004C
:100030000C9441000C9441000C9441000C9441003C
:100040000C9441000C94410011241FBECFE5D4E074
:10005000DEBFCDBF11E0A0E6B0E0EEE4F0E102C00B
:1000600005900D92A03AB107D9F712E0A0EAB1E0ED
:1000700001C01D92A438B107E1F70E9443000C941F
:1000800025080C940000BF92CF92DF92EF92FF926E
:100090000F931F938AE292E09093270280932602A7
:1000A00020E032E030932902209328020E94EA01E6
:1000B00080912802909129020E94F3010E94AA02D5
:1000C00042E0B42E16E630E1C32E20E2D22E92E4B6
:1000D000E92E8AE6F82E07E8809126029091270201
:1000E0000E94D702982FE0912802F09129028823DC
:1000F000D9F080912A02808380912B028183B28281
:100100001582923029F0933031F0913051F406C0CD
:100110001383C48210C01383D4820DC0F38204837E
:100120000AC0E382148207C08091260290912702C0
:10013000BF010E94CC0080912802909129020E9468
:100140001F0280912602909127020E94EA0180916D
:100150002802909129020E94F301BECFFC01858103
:10016000861711F021E007C020E08681841709F48A
:1001700021E081E02827822F0895FC0187818617DE
:1001800011F021E007C020E08085841709F421E008
:1001900081E02827822F0895FC01DB0180818C9368
:1001A000818111968C9311978181813C71F48081BA
:1001B0008C9381EE11968C93119781E012968C931B
:1001C0001297838116968C9308958381803809F065
:1001D0006DC084818035B1F1813530F4803451F0C7
:1001E000823409F05FC01AC08235E1F1803609F02F
:1001F00059C048C08581882309F05CC08681882366
:1002000009F058C08781803109F058C0808580315D
:1002100009F054C0CF010E946504089585818823A8
:1002200009F048C08681882309F044C08781803165
:1002300009F044C08085803109F040C0CF010E94A0
:100240003E04089585818823A9F58681882391F548
:100250008781803199F58085803181F5CF010E94B9
:10026000170408958581882329F58681882311F54F
:100270008781803119F58085803101F5CF010E9499
:10028000F003089585818823A9F48681882391F459
:100290008781803199F48085803181F4CF010E947B
:1002A000C9030895CD010E9406020895CB010E9462
:1002B000FE010895CD010E9416020895CD010E940D
:1002C0000E02089565E16A95F1F7089569E7FBCF9D
:1002D0007F936F935F934F9361E060937302BE9837
:1002E000C698B699FECFB699FCCF882799276FE1BB
:1002F000EADF22D0000059E0442762E40000000059
:10030000E2DF1AD0470F889470FD0894879561E466
:100310005A95B1F7881F40FD08C06CE4D4DF9927D7
:100320004F915F916F917F9108956CE4CCDFBE9AFD
:10033000C69866EBC8DFD3CF77278894B699089420
:10034000791FC0DF8894B6990894791FBBDF889421
:10035000B6990894791F769508956F937F9360916D
:100360007302662329F0B2DFB1DF60E060937302AD
:10037000C69ABE9AC69867E7A6DF98E07727879562
:1003800010F0C69802C0C69A739566E79CDF00001D
:100390009A95A9F770FD04C000000000C69804C03B
:1003A0000000C69A0000000060E78DDFC69A67E78C
:1003B0008ADFBE98C6988894B699089430F08795DD
:1003C000B699FECF6AE37FDFD3CF64E77CDF7F910E
:1003D0006F910895FC01108211821282108617829B
:1003E000138214820895FC011082118282E08283BC
:1003F000158282E6838386E884830895FC0182E087
:10040000828315828EE6838314820895FC0182E044
:10041000828315828DE6838314820895FC0182E035
:100420008283158287E6838314820895FC0182E02B
:10043000828315828AE6838380E884830895CF923D
:10044000DF92FF920F931F93DF93CF93CDB7DEB769
:10045000C954D0400FB6F894DEBF0FBECDBF8C019B
:10046000DC0111962C9111973C9112964C911297A8
:1004700027FF1BC039832A834B8316968C918C836C
:10048000132F1227142718271D83832F0E94AD01D5
:100490008A810E94AD018B810E94AD018C810E94F6
:1004A000AD01812F0E94AD0146C039832A834B8361
:1004B000632F62276427FC018581A80194E0C92E7F
:1004C000D12CCC0EDD1EA82FB0E09E012A0F3B1FC1
:1004D0002C5F3F4F06C0FA018581F60181936F01C1
:1004E00068274F5F5F4FC216D306A9F7F8019381C3
:1004F000FE01EA0FFB1F9483F8018481FE01EA0FDD
:10050000FB1F8583892786278683FF246E01089435
:10051000C11CD11C06C0EC0DFD1D80810E94AD01E7
:10052000F394EF2DF0E0D80112968C9190E00396B1
:100530008E179F0784F7C75BDF4F0FB6F894DEBFB7
:100540000FBECDBFCF91DF911F910F91FF90DF9034
:10055000CF9008951F93CF93DF931BE3C6E6D0E0BF
:10056000FE018191182780E0E037F807D1F78BE38F
:100570000E94AD018AEB0E94AD0181E10E94AD01B4
:1005800080E00E94AD0181E10E94AD0181E80E94FE
:10059000AD0189910E94AD0180E0C037D807C9F74D
:1005A000812F0E94AD01DF91CF911F9108957F921D
:1005B0008F929F92AF92BF92CF92DF92EF92FF9273
:1005C0000F931F93DF93CF93CDB7DEB7C954D040BD
:1005D0000FB6F894DEBF0FBECDBF7C010E9468014C
:1005E000782E0E946801882E0E946801982E89E466
:1005F000891528F400E010E0C92CDD240CC08E0120
:100600000F5F1F4F68015801A90CB11C17C00E9451
:1006100068010F5F1F4F0C151D05CCF30E94680188
:10062000D7017C9211968C92119712969C9282E03F
:1006300068C00E946801F60181936F01CA14DB044F
:10064000C1F70E946801682FD7017C9211968C92A5
:10065000119712969C92982D9725992504C0F80120
:1006600081918F0198270C151D05C9F78981D70144
:1006700013968C9313978A8114968C9314978B817D
:1006800015968C9315978C8116968C9316971296C7
:100690008C911297853011F48D8128C0863040F1FD
:1006A0008D81F70187838E010A5F1F4F40E050E084
:1006B00006C0D8018D918D0180874F5F5F4FD701B4
:1006C00017968C911797282F30E0319642175307D1
:1006D00084F312968C911297E82FF0E02B5F3F4F36
:1006E0002E173F072CF4EC0FFD1F808118968C937A
:1006F000F7018085813210F083E003C080E096131B
:1007000081E0C75BDF4F0FB6F894DEBF0FBECDBFF1
:10071000CF91DF911F910F91FF90EF90DF90CF90DD
:10072000BF90AF909F908F907F900895CF93DF936D
:10073000EC0190E00BC0E92FF0E0DE01AE0FBF1F2F
:1007400019968C91E056FE4F80839F5F8F8198179A
:1007500090F3DF91CF910895CF93DF93EC016E5F1B
:100760006A8362506D8380E98B831C8290E00BC0AA
:10077000E92FF0E0DE01AE0FBF1FE052FE4F808197
:1007800016968C939F5F8D81981790F3DF91CF9190
:1007900008950F931F93CF93DF93EC018B0190E0AB
:1007A0000BC0E92FF0E0DE01AE0FBF1F19968C9150
:1007B000E056FE4F80839F5F8F81981790F380EA09
:1007C00091E060EE71E040E750E00E944207C8010E
:1007D00060E10E94AC03DF91CF911F910F910895CA
:1007E0000F931F93CF93DF93EC018B0190E00BC02D
:1007F000E92FF0E0DE01AE0FBF1F19968C91E05695
:10080000FE4F80839F5F8F81981790F380EA91E07D
:1008100060EE71E040E750E00E941405C80160E11D
:100820000E94AC03DF91CF911F910F9108950F9318
:100830001F93CF93DF93EC018B0190E00BC0E92F66
:10084000F0E0DE01AE0FBF1F19968C91E056FE4F0F
:1008500080839F5F8F81981790F380EA91E060EE2C
:1008600071E040E750E00E94D304C80160E10E94BB
:10087000AC03DF91CF911F910F9108950F931F93B8
:10088000CF93DF93EC018B0190E00BC0E92FF0E0F8
:10089000DE01AE0FBF1F19968C91E056FE4F80838C
:1008A0009F5F8F81981790F380EA91E060EE71E08E
:1008B00040E750E00E94B204C80160E10E94AC032E
:1008C000DF91CF911F910F9108950F931F93CF93B5
:1008D000DF93EC018B0190E00BC0E92FF0E0DE012B
:1008E000AE0FBF1F19968C91E056FE4F80839F5F1D
:1008F0008F81981790F380EA91E060EE71E040E715
:1009000050E00E948C04C80160E10E94AC03DF91BA
:10091000CF911F910F9108950F931F93CF93DF9362
:100920008C0187B3806A87BB88B3806A88BBEB0180
:1009300020E030E0FA01E20FF31FD801A20FB31F4D
:1009400080819C9189278F872F5F3F4F219720318E
:10095000310581F788B38F7588BBDF91CF911F91E7
:100960000F910895CF93DF9327B3206A27BB28B355
:10097000206A28BBEC0120E030E0DB01A20FB31FAE
:10098000FA01E20FF31F80819F8589278C932F5FE7
:100990003F4F21972031310581F788B38F7588BB90
:1009A000DF91CF9108952F923F924F925F926F9275
:1009B0007F928F929F92AF92BF92CF92DF92EF92EF
:1009C000FF920F931F93CF93DF93EF93FF93B92F72
:1009D000A82FD72FC62FF52FE42FBD9ABF9AC59AFF
:1009E000C79A00E11127C00FD11F20E10D9111918D
:1009F00001270A932A95D1F7C598C798FF91EF91DF
:100A0000DF91CF911F910F91FF90EF90DF90CF90EA
:100A1000BF90AF909F908F907F906F905F904F901E
:100A20003F902F90112408952F923F924F925F9202
:100A30006F927F928F929F92AF92BF92CF92DF92EE
:100A4000EF92FF920F931F93CF93DF93EF93FF9358
:100A5000A82FB92FC62FD72FE42FF52FBD9ABF9AF5
:100A6000C59AC79A00E11127A00FB11F20E10E918E
:100A70001191012709932A95D1F7C598C798FF913D
:100A8000EF91DF91CF911F910F91FF90EF90DF9049
:100A9000CF90BF90AF909F908F907F906F905F901E
:100AA0004F903F902F9011240895DC0120E030E01A
:100AB000EC91F0E0E058FF4F80818C931196EC911F
:100AC0001197F0E0E058FF4F808111968C931197B9
:100AD0001296EC911297F0E0E058FF4F8081129649
:100AE0008C9312971396EC911397F0E0E058FF4F18
:100AF000808113968C9313972C5F3F4F149620316F
:100B00003105B1F60895CF93DF93DC019C911196E6
:100B10008C9111978C9312968C91129711968C93BD
:100B2000119713968C91139712968C931297139694
:100B30009C931397ED0120E030E0E881F0E0E0586D
:100B4000FF4F808189932F5F3F4F24303105A9F7F4
:100B5000FA01E058FE4F8C91908189278C93DF91A8
:100B6000CF910895CF93DF93EB01BC0140E050E0BB
:100B700011C08C91908189278D932F5F3F4F3496C0
:100B800024303105B1F74F5F5F4F6C5F7F4F4430CA
:100B9000510539F0DB01FE01E40FF51F20E030E0E4
:100BA000E8CFDF91CF9108956F927F928F929F92BD
:100BB000AF92BF92CF92DF92EF92FF920F931F936B
:100BC000DF93CF9300D000D0CDB7DEB7DC018B012F
:100BD000FB0120E030E08C91808311968C9111977D
:100BE000818312968C911297828313968C9113971E
:100BF00083832F5F3F4F149634962430310559F785
:100C0000CC24DD24760194E0A92EB12C4E01089469
:100C1000811C911C85E0682E712C6C0E7D1E23C0FA
:100C2000C401B701A6010E9483050894C11CD11C10
:100C3000E11CF11CF4019801205F3F4FA801819154
:100C4000DA019D91AD018927D9018D939D01E615AA
:100C5000F705A9F70894A11CB11C0C5F1F4FBCE25B
:100C6000AB16B10479F0F8018485898385858A8380
:100C700086858B8387858C83C50183709070892BD3
:100C8000C9F6CECF0F900F900F900F90CF91DF91BC
:100C90001F910F91FF90EF90DF90CF90BF90AF909A
:100CA0009F908F907F906F900895CF93DF93DC019A
:100CB000EC01249614969C911497FE0120E030E0FC
:100CC0002330310519F08181808301C09B832F5F20
:100CD0003F4F31962430310599F7FD01389618962B
:100CE0009C911897828118968C9318979283918182
:100CF000838181839383FD013C961C969C911C9774
:100D000083811C968C9382818383818182839183EA
:100D1000DF91CF9108952F923F925F926F927F92D1
:100D20008F929F92AF92BF92CF92DF92EF92FF92FB
:100D30000F931F93DF93CF93CDB7DEB764970FB6B2
:100D4000F894DEBF0FBECDBF6C01AE014B5F5F4FAD
:100D5000DC01FA019E012B5E3F4F8C91808311963E
:100D60008C911197818312968C911297828313969E
:100D70008C911397838334961496E217F30769F7DF
:100D800060E070E03E010894611C711C35E0832E28
:100D9000912C8C0E9D1E2BE1522E53C0D9018C91AB
:100DA0008130B1F0823039F48081982F990F87FD1E
:100DB000952590830DC0833059F48081982F990F29
:100DC00087FD952590838081D1019C91892780831F
:100DD0002F5F3F4F319684E090E0280E391EE815D2
:100DE000F905E1F639812A818C819B8189278B83E2
:100DF000232728272983D7012C930C5F1F4FE4E07A
:100E0000F0E0EE0EFF1E00311105A1F0DA018C9129
:100E1000898314968C9114978A8318968C911897CD
:100E20008B831C968C918C83980121573E4FF30144
:100E30001501B4CF6F5F7F4F4F5F5F4F6430710517
:100E400049F07601E60EF71E00E010E05401A60E10
:100E5000B71EDCCF64960FB6F894DEBF0FBECDBFD1
:100E6000CF91DF911F910F91FF90EF90DF90CF9086
:100E7000BF90AF909F908F907F906F905F903F90CA
:100E80002F9008952F923F924F925F926F927F9290
:100E90008F929F92AF92BF92CF92DF92EF92FF928A
:100EA0000F931F93DF93CF93CDB7DEB7C35CD040D2
:100EB0000FB6F894DEBF0FBECDBFA62ECF53DF4FC7
:100EC0007883C15CD04027B3206A27BB28B3206A4F
:100ED00028BBDC014E010894811C911CF401CE0159
:100EE0000596CE53DF4F99838883C25CD0408C91A6
:100EF000808311968C911197848312968C9112970E
:100F0000808713968C911397848714963196CE53CD
:100F1000DF4F88819981C25CD040E817F90739F723
:100F2000E1E1EE2EF12CEC0EFD1ECA01B7010E948C
:100F3000D4058E010F5F1F4FC801B7010E94B20593
:100F400071E2672E712C6C0E7D1E61E0C62ED12CD5
:100F5000E12CF12CB02E012F51EB252E312C2C0E33
:100F60003D1E41EC442E512C4C0E5D1E9AE0C916DC
:100F7000D104E104F10481F08B2D902F0E945505DE
:100F80008B2D902F0E9455068B2D902F0E948B0643
:100F90008B2D902FB3010BC08B2D902F0E945505E8
:100FA0008B2D902F0E9455068B2D902FB1010E9402
:100FB000B2050894C11CD11CE11CF11CA0E1B0E0F9
:100FC0006A0E7B1E6414750489F688B38F7588BB1E
:100FD0002A2DCF53DF4F3881C15CD040C901FC01BD
:100FE000D4018C91808314968C91149781831896E8
:100FF0008C91189782831C968C9183830894811C12
:10100000911C3496CE53DF4F88819981C25CD040C9
:101010008816990629F7CD53DF4F0FB6F894DEBF37
:101020000FBECDBFCF91DF911F910F91FF90EF9039
:10103000DF90CF90BF90AF909F908F907F906F90F8
:0E1040005F904F903F902F900895F894FFCF4F
:10104E003BBA110011812A4649545F435655542A22
:10105E0000112233445566778899AABBCCDDEEFF8A
:10106E00637C777BF26B6FC53001672BFED7AB7657
:10107E00CA82C97DFA5947F0ADD4A2AF9CA472C002
:10108E00B7FD9326363FF7CC34A5E5F171D831156F
:10109E0004C723C31896059A071280E2EB27B27590
:1010AE0009832C1A1B6E5AA0523BD6B329E32F8408
:1010BE0053D100ED20FCB15B6ACBBE394A4C58CF00
:1010CE00D0EFAAFB434D338545F9027F503C9FA8D4
:1010DE0051A3408F929D38F5BCB6DA2110FFF3D2A2
:1010EE00CD0C13EC5F974417C4A77E3D645D197356
:1010FE0060814FDC222A908846EEB814DE5E0BDB50
:10110E00E0323A0A4906245CC2D3AC629195E47986
:10111E00E7C8376D8DD54EA96C56F4EA657AAE08E0
:10112E00BA78252E1CA6B4C6E8DD741F4BBD8B8A7B
:10113E00703EB5664803F60E613557B986C11D9EE1
:10114E00E1F8981169D98E949B1E87E9CE5528DF58
:10115E008CA1890DBFE6426841992D0FB054BB1684
:10116E0001020408102040801B366CD8AB4D9A0249
:10117E000301010102030101010203030101020047
:00000001FF
